{"contracts/CTF_STONKS/Stonks.sol":{"Stonks":{"abi":[{"inputs":[{"internalType":"address","name":"_player","type":"address"}],"stateMutability":"nonpayable","type":"constructor"},{"inputs":[],"name":"GME","outputs":[{"internalType":"uint256","name":"","type":"uint256"}],"stateMutability":"view","type":"function"},{"inputs":[],"name":"ORACLE_TSLA_GME","outputs":[{"internalType":"uint256","name":"","type":"uint256"}],"stateMutability":"view","type":"function"},{"inputs":[],"name":"TSLA","outputs":[{"internalType":"uint256","name":"","type":"uint256"}],"stateMutability":"view","type":"function"},{"inputs":[{"internalType":"address","name":"_owner","type":"address"},{"internalType":"uint256","name":"_ticker","type":"uint256"}],"name":"balanceOf","outputs":[{"internalType":"uint256","name":"","type":"uint256"}],"stateMutability":"view","type":"function"},{"inputs":[{"internalType":"uint256","name":"amountGMEin","type":"uint256"},{"internalType":"uint256","name":"amountTSLAout","type":"uint256"}],"name":"buyTSLA","outputs":[],"stateMutability":"nonpayable","type":"function"},{"inputs":[{"internalType":"uint256","name":"amountTSLAin","type":"uint256"},{"internalType":"uint256","name":"amountGMEout","type":"uint256"}],"name":"sellTSLA","outputs":[],"stateMutability":"nonpayable","type":"function"}],"evm":{"bytecode":{"linkReferences":{},"object":"608060405234801561001057600080fd5b5060405161088138038061088183398181016040528101906100329190610147565b60146000808373ffffffffffffffffffffffffffffffffffffffff1673ffffffffffffffffffffffffffffffffffffffff1681526020019081526020016000206000808152602001908152602001600020819055506103e86000808373ffffffffffffffffffffffffffffffffffffffff1673ffffffffffffffffffffffffffffffffffffffff1681526020019081526020016000206000600181526020019081526020016000208190555050610174565b600080fd5b600073ffffffffffffffffffffffffffffffffffffffff82169050919050565b6000610114826100e9565b9050919050565b61012481610109565b811461012f57600080fd5b50565b6000815190506101418161011b565b92915050565b60006020828403121561015d5761015c6100e4565b5b600061016b84828501610132565b91505092915050565b6106fe806101836000396000f3fe608060405234801561001057600080fd5b50600436106100615760003560e01c8062fdd58e14610066578063530ec3f71461009657806382187304146100b2578063ab78b9ae146100d0578063b44d76ec146100ee578063b4f9fc921461010c575b600080fd5b610080600480360381019061007b9190610468565b610128565b60405161008d91906104b7565b60405180910390f35b6100b060048036038101906100ab91906104d2565b610182565b005b6100ba6102a1565b6040516100c791906104b7565b60405180910390f35b6100d86102a6565b6040516100e591906104b7565b60405180910390f35b6100f66102ab565b60405161010391906104b7565b60405180910390f35b610126600480360381019061012191906104d2565b6102b0565b005b60008060008473ffffffffffffffffffffffffffffffffffffffff1673ffffffffffffffffffffffffffffffffffffffff168152602001908152602001600020600083815260200190815260200160002054905092915050565b806032836101909190610541565b146101d0576040517f08c379a00000000000000000000000000000000000000000000000000000000081526004016101c7906105e0565b60405180910390fd5b816000803373ffffffffffffffffffffffffffffffffffffffff1673ffffffffffffffffffffffffffffffffffffffff1681526020019081526020016000206000808152602001908152602001600020600082825461022f9190610600565b92505081905550806000803373ffffffffffffffffffffffffffffffffffffffff1673ffffffffffffffffffffffffffffffffffffffff16815260200190815260200160002060006001815260200190815260200160002060008282546102969190610634565b925050819055505050565b600181565b603281565b600081565b806032836102be9190610697565b146102fe576040517f08c379a00000000000000000000000000000000000000000000000000000000081526004016102f5906105e0565b60405180910390fd5b816000803373ffffffffffffffffffffffffffffffffffffffff1673ffffffffffffffffffffffffffffffffffffffff168152602001908152602001600020600060018152602001908152602001600020600082825461035e9190610600565b92505081905550806000803373ffffffffffffffffffffffffffffffffffffffff1673ffffffffffffffffffffffffffffffffffffffff168152602001908152602001600020600080815260200190815260200160002060008282546103c49190610634565b925050819055505050565b600080fd5b600073ffffffffffffffffffffffffffffffffffffffff82169050919050565b60006103ff826103d4565b9050919050565b61040f816103f4565b811461041a57600080fd5b50565b60008135905061042c81610406565b92915050565b6000819050919050565b61044581610432565b811461045057600080fd5b50565b6000813590506104628161043c565b92915050565b6000806040838503121561047f5761047e6103cf565b5b600061048d8582860161041d565b925050602061049e85828601610453565b9150509250929050565b6104b181610432565b82525050565b60006020820190506104cc60008301846104a8565b92915050565b600080604083850312156104e9576104e86103cf565b5b60006104f785828601610453565b925050602061050885828601610453565b9150509250929050565b7f4e487b7100000000000000000000000000000000000000000000000000000000600052601160045260246000fd5b600061054c82610432565b915061055783610432565b925082820261056581610432565b9150828204841483151761057c5761057b610512565b5b5092915050565b600082825260208201905092915050565b7f496e76616c696420707269636500000000000000000000000000000000000000600082015250565b60006105ca600d83610583565b91506105d582610594565b602082019050919050565b600060208201905081810360008301526105f9816105bd565b9050919050565b600061060b82610432565b915061061683610432565b925082820390508181111561062e5761062d610512565b5b92915050565b600061063f82610432565b915061064a83610432565b925082820190508082111561066257610661610512565b5b92915050565b7f4e487b7100000000000000000000000000000000000000000000000000000000600052601260045260246000fd5b60006106a282610432565b91506106ad83610432565b9250826106bd576106bc610668565b5b82820490509291505056fea2646970667358221220477e90520e09f0179411c2375b1e556052b3d25f1f7af9021112f7cf9ed2c0e364736f6c63430008130033","opcodes":"PUSH1 0x80 PUSH1 0x40 MSTORE CALLVALUE DUP1 ISZERO PUSH2 0x10 JUMPI PUSH1 0x0 DUP1 REVERT JUMPDEST POP PUSH1 0x40 MLOAD PUSH2 0x881 CODESIZE SUB DUP1 PUSH2 0x881 DUP4 CODECOPY DUP2 DUP2 ADD PUSH1 0x40 MSTORE DUP2 ADD SWAP1 PUSH2 0x32 SWAP2 SWAP1 PUSH2 0x147 JUMP JUMPDEST PUSH1 0x14 PUSH1 0x0 DUP1 DUP4 PUSH20 0xFFFFFFFFFFFFFFFFFFFFFFFFFFFFFFFFFFFFFFFF AND PUSH20 0xFFFFFFFFFFFFFFFFFFFFFFFFFFFFFFFFFFFFFFFF AND DUP2 MSTORE PUSH1 0x20 ADD SWAP1 DUP2 MSTORE PUSH1 0x20 ADD PUSH1 0x0 KECCAK256 PUSH1 0x0 DUP1 DUP2 MSTORE PUSH1 0x20 ADD SWAP1 DUP2 MSTORE PUSH1 0x20 ADD PUSH1 0x0 KECCAK256 DUP2 SWAP1 SSTORE POP PUSH2 0x3E8 PUSH1 0x0 DUP1 DUP4 PUSH20 0xFFFFFFFFFFFFFFFFFFFFFFFFFFFFFFFFFFFFFFFF AND PUSH20 0xFFFFFFFFFFFFFFFFFFFFFFFFFFFFFFFFFFFFFFFF AND DUP2 MSTORE PUSH1 0x20 ADD SWAP1 DUP2 MSTORE PUSH1 0x20 ADD PUSH1 0x0 KECCAK256 PUSH1 0x0 PUSH1 0x1 DUP2 MSTORE PUSH1 0x20 ADD SWAP1 DUP2 MSTORE PUSH1 0x20 ADD PUSH1 0x0 KECCAK256 DUP2 SWAP1 SSTORE POP POP PUSH2 0x174 JUMP JUMPDEST PUSH1 0x0 DUP1 REVERT JUMPDEST PUSH1 0x0 PUSH20 0xFFFFFFFFFFFFFFFFFFFFFFFFFFFFFFFFFFFFFFFF DUP3 AND SWAP1 POP SWAP2 SWAP1 POP JUMP JUMPDEST PUSH1 0x0 PUSH2 0x114 DUP3 PUSH2 0xE9 JUMP JUMPDEST SWAP1 POP SWAP2 SWAP1 POP JUMP JUMPDEST PUSH2 0x124 DUP2 PUSH2 0x109 JUMP JUMPDEST DUP2 EQ PUSH2 0x12F JUMPI PUSH1 0x0 DUP1 REVERT JUMPDEST POP JUMP JUMPDEST PUSH1 0x0 DUP2 MLOAD SWAP1 POP PUSH2 0x141 DUP2 PUSH2 0x11B JUMP JUMPDEST SWAP3 SWAP2 POP POP JUMP JUMPDEST PUSH1 0x0 PUSH1 0x20 DUP3 DUP5 SUB SLT ISZERO PUSH2 0x15D JUMPI PUSH2 0x15C PUSH2 0xE4 JUMP JUMPDEST JUMPDEST PUSH1 0x0 PUSH2 0x16B DUP5 DUP3 DUP6 ADD PUSH2 0x132 JUMP JUMPDEST SWAP2 POP POP SWAP3 SWAP2 POP POP JUMP JUMPDEST PUSH2 0x6FE DUP1 PUSH2 0x183 PUSH1 0x0 CODECOPY PUSH1 0x0 RETURN INVALID PUSH1 0x80 PUSH1 0x40 MSTORE CALLVALUE DUP1 ISZERO PUSH2 0x10 JUMPI PUSH1 0x0 DUP1 REVERT JUMPDEST POP PUSH1 0x4 CALLDATASIZE LT PUSH2 0x61 JUMPI PUSH1 0x0 CALLDATALOAD PUSH1 0xE0 SHR DUP1 PUSH3 0xFDD58E EQ PUSH2 0x66 JUMPI DUP1 PUSH4 0x530EC3F7 EQ PUSH2 0x96 JUMPI DUP1 PUSH4 0x82187304 EQ PUSH2 0xB2 JUMPI DUP1 PUSH4 0xAB78B9AE EQ PUSH2 0xD0 JUMPI DUP1 PUSH4 0xB44D76EC EQ PUSH2 0xEE JUMPI DUP1 PUSH4 0xB4F9FC92 EQ PUSH2 0x10C JUMPI JUMPDEST PUSH1 0x0 DUP1 REVERT JUMPDEST PUSH2 0x80 PUSH1 0x4 DUP1 CALLDATASIZE SUB DUP2 ADD SWAP1 PUSH2 0x7B SWAP2 SWAP1 PUSH2 0x468 JUMP JUMPDEST PUSH2 0x128 JUMP JUMPDEST PUSH1 0x40 MLOAD PUSH2 0x8D SWAP2 SWAP1 PUSH2 0x4B7 JUMP JUMPDEST PUSH1 0x40 MLOAD DUP1 SWAP2 SUB SWAP1 RETURN JUMPDEST PUSH2 0xB0 PUSH1 0x4 DUP1 CALLDATASIZE SUB DUP2 ADD SWAP1 PUSH2 0xAB SWAP2 SWAP1 PUSH2 0x4D2 JUMP JUMPDEST PUSH2 0x182 JUMP JUMPDEST STOP JUMPDEST PUSH2 0xBA PUSH2 0x2A1 JUMP JUMPDEST PUSH1 0x40 MLOAD PUSH2 0xC7 SWAP2 SWAP1 PUSH2 0x4B7 JUMP JUMPDEST PUSH1 0x40 MLOAD DUP1 SWAP2 SUB SWAP1 RETURN JUMPDEST PUSH2 0xD8 PUSH2 0x2A6 JUMP JUMPDEST PUSH1 0x40 MLOAD PUSH2 0xE5 SWAP2 SWAP1 PUSH2 0x4B7 JUMP JUMPDEST PUSH1 0x40 MLOAD DUP1 SWAP2 SUB SWAP1 RETURN JUMPDEST PUSH2 0xF6 PUSH2 0x2AB JUMP JUMPDEST PUSH1 0x40 MLOAD PUSH2 0x103 SWAP2 SWAP1 PUSH2 0x4B7 JUMP JUMPDEST PUSH1 0x40 MLOAD DUP1 SWAP2 SUB SWAP1 RETURN JUMPDEST PUSH2 0x126 PUSH1 0x4 DUP1 CALLDATASIZE SUB DUP2 ADD SWAP1 PUSH2 0x121 SWAP2 SWAP1 PUSH2 0x4D2 JUMP JUMPDEST PUSH2 0x2B0 JUMP JUMPDEST STOP JUMPDEST PUSH1 0x0 DUP1 PUSH1 0x0 DUP5 PUSH20 0xFFFFFFFFFFFFFFFFFFFFFFFFFFFFFFFFFFFFFFFF AND PUSH20 0xFFFFFFFFFFFFFFFFFFFFFFFFFFFFFFFFFFFFFFFF AND DUP2 MSTORE PUSH1 0x20 ADD SWAP1 DUP2 MSTORE PUSH1 0x20 ADD PUSH1 0x0 KECCAK256 PUSH1 0x0 DUP4 DUP2 MSTORE PUSH1 0x20 ADD SWAP1 DUP2 MSTORE PUSH1 0x20 ADD PUSH1 0x0 KECCAK256 SLOAD SWAP1 POP SWAP3 SWAP2 POP POP JUMP JUMPDEST DUP1 PUSH1 0x32 DUP4 PUSH2 0x190 SWAP2 SWAP1 PUSH2 0x541 JUMP JUMPDEST EQ PUSH2 0x1D0 JUMPI PUSH1 0x40 MLOAD PUSH32 0x8C379A000000000000000000000000000000000000000000000000000000000 DUP2 MSTORE PUSH1 0x4 ADD PUSH2 0x1C7 SWAP1 PUSH2 0x5E0 JUMP JUMPDEST PUSH1 0x40 MLOAD DUP1 SWAP2 SUB SWAP1 REVERT JUMPDEST DUP2 PUSH1 0x0 DUP1 CALLER PUSH20 0xFFFFFFFFFFFFFFFFFFFFFFFFFFFFFFFFFFFFFFFF AND PUSH20 0xFFFFFFFFFFFFFFFFFFFFFFFFFFFFFFFFFFFFFFFF AND DUP2 MSTORE PUSH1 0x20 ADD SWAP1 DUP2 MSTORE PUSH1 0x20 ADD PUSH1 0x0 KECCAK256 PUSH1 0x0 DUP1 DUP2 MSTORE PUSH1 0x20 ADD SWAP1 DUP2 MSTORE PUSH1 0x20 ADD PUSH1 0x0 KECCAK256 PUSH1 0x0 DUP3 DUP3 SLOAD PUSH2 0x22F SWAP2 SWAP1 PUSH2 0x600 JUMP JUMPDEST SWAP3 POP POP DUP2 SWAP1 SSTORE POP DUP1 PUSH1 0x0 DUP1 CALLER PUSH20 0xFFFFFFFFFFFFFFFFFFFFFFFFFFFFFFFFFFFFFFFF AND PUSH20 0xFFFFFFFFFFFFFFFFFFFFFFFFFFFFFFFFFFFFFFFF AND DUP2 MSTORE PUSH1 0x20 ADD SWAP1 DUP2 MSTORE PUSH1 0x20 ADD PUSH1 0x0 KECCAK256 PUSH1 0x0 PUSH1 0x1 DUP2 MSTORE PUSH1 0x20 ADD SWAP1 DUP2 MSTORE PUSH1 0x20 ADD PUSH1 0x0 KECCAK256 PUSH1 0x0 DUP3 DUP3 SLOAD PUSH2 0x296 SWAP2 SWAP1 PUSH2 0x634 JUMP JUMPDEST SWAP3 POP POP DUP2 SWAP1 SSTORE POP POP POP JUMP JUMPDEST PUSH1 0x1 DUP2 JUMP JUMPDEST PUSH1 0x32 DUP2 JUMP JUMPDEST PUSH1 0x0 DUP2 JUMP JUMPDEST DUP1 PUSH1 0x32 DUP4 PUSH2 0x2BE SWAP2 SWAP1 PUSH2 0x697 JUMP JUMPDEST EQ PUSH2 0x2FE JUMPI PUSH1 0x40 MLOAD PUSH32 0x8C379A000000000000000000000000000000000000000000000000000000000 DUP2 MSTORE PUSH1 0x4 ADD PUSH2 0x2F5 SWAP1 PUSH2 0x5E0 JUMP JUMPDEST PUSH1 0x40 MLOAD DUP1 SWAP2 SUB SWAP1 REVERT JUMPDEST DUP2 PUSH1 0x0 DUP1 CALLER PUSH20 0xFFFFFFFFFFFFFFFFFFFFFFFFFFFFFFFFFFFFFFFF AND PUSH20 0xFFFFFFFFFFFFFFFFFFFFFFFFFFFFFFFFFFFFFFFF AND DUP2 MSTORE PUSH1 0x20 ADD SWAP1 DUP2 MSTORE PUSH1 0x20 ADD PUSH1 0x0 KECCAK256 PUSH1 0x0 PUSH1 0x1 DUP2 MSTORE PUSH1 0x20 ADD SWAP1 DUP2 MSTORE PUSH1 0x20 ADD PUSH1 0x0 KECCAK256 PUSH1 0x0 DUP3 DUP3 SLOAD PUSH2 0x35E SWAP2 SWAP1 PUSH2 0x600 JUMP JUMPDEST SWAP3 POP POP DUP2 SWAP1 SSTORE POP DUP1 PUSH1 0x0 DUP1 CALLER PUSH20 0xFFFFFFFFFFFFFFFFFFFFFFFFFFFFFFFFFFFFFFFF AND PUSH20 0xFFFFFFFFFFFFFFFFFFFFFFFFFFFFFFFFFFFFFFFF AND DUP2 MSTORE PUSH1 0x20 ADD SWAP1 DUP2 MSTORE PUSH1 0x20 ADD PUSH1 0x0 KECCAK256 PUSH1 0x0 DUP1 DUP2 MSTORE PUSH1 0x20 ADD SWAP1 DUP2 MSTORE PUSH1 0x20 ADD PUSH1 0x0 KECCAK256 PUSH1 0x0 DUP3 DUP3 SLOAD PUSH2 0x3C4 SWAP2 SWAP1 PUSH2 0x634 JUMP JUMPDEST SWAP3 POP POP DUP2 SWAP1 SSTORE POP POP POP JUMP JUMPDEST PUSH1 0x0 DUP1 REVERT JUMPDEST PUSH1 0x0 PUSH20 0xFFFFFFFFFFFFFFFFFFFFFFFFFFFFFFFFFFFFFFFF DUP3 AND SWAP1 POP SWAP2 SWAP1 POP JUMP JUMPDEST PUSH1 0x0 PUSH2 0x3FF DUP3 PUSH2 0x3D4 JUMP JUMPDEST SWAP1 POP SWAP2 SWAP1 POP JUMP JUMPDEST PUSH2 0x40F DUP2 PUSH2 0x3F4 JUMP JUMPDEST DUP2 EQ PUSH2 0x41A JUMPI PUSH1 0x0 DUP1 REVERT JUMPDEST POP JUMP JUMPDEST PUSH1 0x0 DUP2 CALLDATALOAD SWAP1 POP PUSH2 0x42C DUP2 PUSH2 0x406 JUMP JUMPDEST SWAP3 SWAP2 POP POP JUMP JUMPDEST PUSH1 0x0 DUP2 SWAP1 POP SWAP2 SWAP1 POP JUMP JUMPDEST PUSH2 0x445 DUP2 PUSH2 0x432 JUMP JUMPDEST DUP2 EQ PUSH2 0x450 JUMPI PUSH1 0x0 DUP1 REVERT JUMPDEST POP JUMP JUMPDEST PUSH1 0x0 DUP2 CALLDATALOAD SWAP1 POP PUSH2 0x462 DUP2 PUSH2 0x43C JUMP JUMPDEST SWAP3 SWAP2 POP POP JUMP JUMPDEST PUSH1 0x0 DUP1 PUSH1 0x40 DUP4 DUP6 SUB SLT ISZERO PUSH2 0x47F JUMPI PUSH2 0x47E PUSH2 0x3CF JUMP JUMPDEST JUMPDEST PUSH1 0x0 PUSH2 0x48D DUP6 DUP3 DUP7 ADD PUSH2 0x41D JUMP JUMPDEST SWAP3 POP POP PUSH1 0x20 PUSH2 0x49E DUP6 DUP3 DUP7 ADD PUSH2 0x453 JUMP JUMPDEST SWAP2 POP POP SWAP3 POP SWAP3 SWAP1 POP JUMP JUMPDEST PUSH2 0x4B1 DUP2 PUSH2 0x432 JUMP JUMPDEST DUP3 MSTORE POP POP JUMP JUMPDEST PUSH1 0x0 PUSH1 0x20 DUP3 ADD SWAP1 POP PUSH2 0x4CC PUSH1 0x0 DUP4 ADD DUP5 PUSH2 0x4A8 JUMP JUMPDEST SWAP3 SWAP2 POP POP JUMP JUMPDEST PUSH1 0x0 DUP1 PUSH1 0x40 DUP4 DUP6 SUB SLT ISZERO PUSH2 0x4E9 JUMPI PUSH2 0x4E8 PUSH2 0x3CF JUMP JUMPDEST JUMPDEST PUSH1 0x0 PUSH2 0x4F7 DUP6 DUP3 DUP7 ADD PUSH2 0x453 JUMP JUMPDEST SWAP3 POP POP PUSH1 0x20 PUSH2 0x508 DUP6 DUP3 DUP7 ADD PUSH2 0x453 JUMP JUMPDEST SWAP2 POP POP SWAP3 POP SWAP3 SWAP1 POP JUMP JUMPDEST PUSH32 0x4E487B7100000000000000000000000000000000000000000000000000000000 PUSH1 0x0 MSTORE PUSH1 0x11 PUSH1 0x4 MSTORE PUSH1 0x24 PUSH1 0x0 REVERT JUMPDEST PUSH1 0x0 PUSH2 0x54C DUP3 PUSH2 0x432 JUMP JUMPDEST SWAP2 POP PUSH2 0x557 DUP4 PUSH2 0x432 JUMP JUMPDEST SWAP3 POP DUP3 DUP3 MUL PUSH2 0x565 DUP2 PUSH2 0x432 JUMP JUMPDEST SWAP2 POP DUP3 DUP3 DIV DUP5 EQ DUP4 ISZERO OR PUSH2 0x57C JUMPI PUSH2 0x57B PUSH2 0x512 JUMP JUMPDEST JUMPDEST POP SWAP3 SWAP2 POP POP JUMP JUMPDEST PUSH1 0x0 DUP3 DUP3 MSTORE PUSH1 0x20 DUP3 ADD SWAP1 POP SWAP3 SWAP2 POP POP JUMP JUMPDEST PUSH32 0x496E76616C696420707269636500000000000000000000000000000000000000 PUSH1 0x0 DUP3 ADD MSTORE POP JUMP JUMPDEST PUSH1 0x0 PUSH2 0x5CA PUSH1 0xD DUP4 PUSH2 0x583 JUMP JUMPDEST SWAP2 POP PUSH2 0x5D5 DUP3 PUSH2 0x594 JUMP JUMPDEST PUSH1 0x20 DUP3 ADD SWAP1 POP SWAP2 SWAP1 POP JUMP JUMPDEST PUSH1 0x0 PUSH1 0x20 DUP3 ADD SWAP1 POP DUP2 DUP2 SUB PUSH1 0x0 DUP4 ADD MSTORE PUSH2 0x5F9 DUP2 PUSH2 0x5BD JUMP JUMPDEST SWAP1 POP SWAP2 SWAP1 POP JUMP JUMPDEST PUSH1 0x0 PUSH2 0x60B DUP3 PUSH2 0x432 JUMP JUMPDEST SWAP2 POP PUSH2 0x616 DUP4 PUSH2 0x432 JUMP JUMPDEST SWAP3 POP DUP3 DUP3 SUB SWAP1 POP DUP2 DUP2 GT ISZERO PUSH2 0x62E JUMPI PUSH2 0x62D PUSH2 0x512 JUMP JUMPDEST JUMPDEST SWAP3 SWAP2 POP POP JUMP JUMPDEST PUSH1 0x0 PUSH2 0x63F DUP3 PUSH2 0x432 JUMP JUMPDEST SWAP2 POP PUSH2 0x64A DUP4 PUSH2 0x432 JUMP JUMPDEST SWAP3 POP DUP3 DUP3 ADD SWAP1 POP DUP1 DUP3 GT ISZERO PUSH2 0x662 JUMPI PUSH2 0x661 PUSH2 0x512 JUMP JUMPDEST JUMPDEST SWAP3 SWAP2 POP POP JUMP JUMPDEST PUSH32 0x4E487B7100000000000000000000000000000000000000000000000000000000 PUSH1 0x0 MSTORE PUSH1 0x12 PUSH1 0x4 MSTORE PUSH1 0x24 PUSH1 0x0 REVERT JUMPDEST PUSH1 0x0 PUSH2 0x6A2 DUP3 PUSH2 0x432 JUMP JUMPDEST SWAP2 POP PUSH2 0x6AD DUP4 PUSH2 0x432 JUMP JUMPDEST SWAP3 POP DUP3 PUSH2 0x6BD JUMPI PUSH2 0x6BC PUSH2 0x668 JUMP JUMPDEST JUMPDEST DUP3 DUP3 DIV SWAP1 POP SWAP3 SWAP2 POP POP JUMP INVALID LOG2 PUSH5 0x6970667358 0x22 SLT KECCAK256 SELFBALANCE PUSH31 0x90520E09F0179411C2375B1E556052B3D25F1F7AF9021112F7CF9ED2C0E364 PUSH20 0x6F6C634300081300330000000000000000000000 "},"methodIdentifiers":{"GME()":"82187304","ORACLE_TSLA_GME()":"ab78b9ae","TSLA()":"b44d76ec","balanceOf(address,uint256)":"00fdd58e","buyTSLA(uint256,uint256)":"b4f9fc92","sellTSLA(uint256,uint256)":"530ec3f7"}}}}}