{
  "_format": "hh-sol-artifact-1",
  "contractName": "Valve",
  "sourceName": "contracts/CTF_GAS_VALUE/Valve.sol",
  "abi": [
    {
      "inputs": [],
      "name": "lastResult",
      "outputs": [
        {
          "internalType": "bool",
          "name": "",
          "type": "bool"
        }
      ],
      "stateMutability": "view",
      "type": "function"
    },
    {
      "inputs": [],
      "name": "open",
      "outputs": [
        {
          "internalType": "bool",
          "name": "",
          "type": "bool"
        }
      ],
      "stateMutability": "view",
      "type": "function"
    },
    {
      "inputs": [
        {
          "internalType": "contract INozzle",
          "name": "nozzle",
          "type": "address"
        }
      ],
      "name": "openValve",
      "outputs": [],
      "stateMutability": "nonpayable",
      "type": "function"
    },
    {
      "inputs": [
        {
          "internalType": "contract INozzle",
          "name": "nozzle",
          "type": "address"
        }
      ],
      "name": "useNozzle",
      "outputs": [
        {
          "internalType": "bool",
          "name": "",
          "type": "bool"
        }
      ],
      "stateMutability": "nonpayable",
      "type": "function"
    }
  ],
  "bytecode": "0x608060405234801561001057600080fd5b50610507806100206000396000f3fe608060405234801561001057600080fd5b506004361061004c5760003560e01c806339da5f5f1461005157806384dea8ea14610081578063abcc11d81461009d578063fcfff16f146100bb575b600080fd5b61006b60048036038101906100669190610321565b6100d9565b60405161007891906103b0565b60405180910390f35b61009b60048036038101906100969190610321565b61019f565b005b6100a56102aa565b6040516100b291906103b0565b60405180910390f35b6100c36102bd565b6040516100d091906103b0565b60405180910390f35b60008173ffffffffffffffffffffffffffffffffffffffff166325f7b1de6040518163ffffffff1660e01b8152600401602060405180830381600087803b15801561012357600080fd5b505af192505050801561015457506040513d601f19601f8201168201806040525081019061015191906102f8565b60015b61017b5760008060016101000a81548160ff0219169083151502179055506000905061019a565b80600060016101000a81548160ff021916908315150217905550809150505b919050565b60016000806101000a81548160ff02191690831515021790555060003073ffffffffffffffffffffffffffffffffffffffff166339da5f5f60e01b836040516024016101eb91906103cb565b604051602081830303815290604052907bffffffffffffffffffffffffffffffffffffffffffffffffffffffff19166020820180517bffffffffffffffffffffffffffffffffffffffffffffffffffffffff83818316178352505050506040516102559190610399565b6000604051808303816000865af19150503d8060008114610292576040519150601f19603f3d011682016040523d82523d6000602084013e610297565b606091505b5050905080156102a657600080fd5b5050565b600060019054906101000a900460ff1681565b60008054906101000a900460ff1681565b6000815190506102dd816104a3565b92915050565b6000813590506102f2816104ba565b92915050565b60006020828403121561030a57600080fd5b6000610318848285016102ce565b91505092915050565b60006020828403121561033357600080fd5b6000610341848285016102e3565b91505092915050565b6103538161040e565b82525050565b6000610364826103e6565b61036e81856103f1565b935061037e818560208601610470565b80840191505092915050565b6103938161044c565b82525050565b60006103a58284610359565b915081905092915050565b60006020820190506103c5600083018461034a565b92915050565b60006020820190506103e0600083018461038a565b92915050565b600081519050919050565b600081905092915050565b60006104078261042c565b9050919050565b60008115159050919050565b6000610425826103fc565b9050919050565b600073ffffffffffffffffffffffffffffffffffffffff82169050919050565b60006104578261045e565b9050919050565b60006104698261042c565b9050919050565b60005b8381101561048e578082015181840152602081019050610473565b8381111561049d576000848401525b50505050565b6104ac8161040e565b81146104b757600080fd5b50565b6104c38161041a565b81146104ce57600080fd5b5056fea26469706673582212201d69b5cb5de7e7bcaaae084619ca6af1c1b436d799111ac9fe65901e87fa49a964736f6c63430008000033",
  "linkReferences": {},
  "deployedLinkReferences": {}
}