{
  "_format": "hh-sol-artifact-1",
  "contractName": "RootMe",
  "sourceName": "contracts/CTF_ROOT_ME/RootMe.sol",
  "abi": [
    {
      "inputs": [],
      "stateMutability": "nonpayable",
      "type": "constructor"
    },
    {
      "inputs": [
        {
          "internalType": "string",
          "name": "user",
          "type": "string"
        },
        {
          "internalType": "string",
          "name": "salt",
          "type": "string"
        }
      ],
      "name": "_getIdentifier",
      "outputs": [
        {
          "internalType": "bytes32",
          "name": "",
          "type": "bytes32"
        }
      ],
      "stateMutability": "pure",
      "type": "function"
    },
    {
      "inputs": [
        {
          "internalType": "bytes32",
          "name": "",
          "type": "bytes32"
        }
      ],
      "name": "accountByIdentifier",
      "outputs": [
        {
          "internalType": "address",
          "name": "",
          "type": "address"
        }
      ],
      "stateMutability": "view",
      "type": "function"
    },
    {
      "inputs": [
        {
          "internalType": "string",
          "name": "username",
          "type": "string"
        },
        {
          "internalType": "string",
          "name": "salt",
          "type": "string"
        }
      ],
      "name": "register",
      "outputs": [],
      "stateMutability": "nonpayable",
      "type": "function"
    },
    {
      "inputs": [
        {
          "internalType": "string",
          "name": "",
          "type": "string"
        }
      ],
      "name": "usernames",
      "outputs": [
        {
          "internalType": "bool",
          "name": "",
          "type": "bool"
        }
      ],
      "stateMutability": "view",
      "type": "function"
    },
    {
      "inputs": [],
      "name": "victory",
      "outputs": [
        {
          "internalType": "bool",
          "name": "",
          "type": "bool"
        }
      ],
      "stateMutability": "view",
      "type": "function"
    },
    {
      "inputs": [
        {
          "internalType": "bytes32",
          "name": "storageSlot",
          "type": "bytes32"
        },
        {
          "internalType": "bytes32",
          "name": "data",
          "type": "bytes32"
        }
      ],
      "name": "write",
      "outputs": [],
      "stateMutability": "nonpayable",
      "type": "function"
    }
  ],
  "bytecode": "0x60806040523480156200001157600080fd5b506200008e6040518060400160405280600481526020017f524f4f54000000000000000000000000000000000000000000000000000000008152506040518060400160405280600481526020017f524f4f54000000000000000000000000000000000000000000000000000000008152506200009460201b60201c565b62000322565b60001515600183604051620000aa91906200025e565b908152602001604051809103902060009054906101000a900460ff161515146200010b576040517f08c379a00000000000000000000000000000000000000000000000000000000081526004016200010290620002d8565b60405180910390fd5b600180836040516200011e91906200025e565b908152602001604051809103902060006101000a81548160ff0219169083151502179055506000620001578383620001b060201b60201c565b9050336002600083815260200190815260200160002060006101000a81548173ffffffffffffffffffffffffffffffffffffffff021916908373ffffffffffffffffffffffffffffffffffffffff160217905550505050565b60008282604051602001620001c7929190620002fa565b60405160208183030381529060405280519060200120905092915050565b600081519050919050565b600081905092915050565b60005b838110156200021b578082015181840152602081019050620001fe565b60008484015250505050565b60006200023482620001e5565b620002408185620001f0565b935062000252818560208601620001fb565b80840191505092915050565b60006200026c828462000227565b915081905092915050565b600082825260208201905092915050565b7f557365726e616d6520616c726561647920657869737473000000000000000000600082015250565b6000620002c060178362000277565b9150620002cd8262000288565b602082019050919050565b60006020820190508181036000830152620002f381620002b1565b9050919050565b600062000308828562000227565b915062000316828462000227565b91508190509392505050565b61096780620003326000396000f3fe608060405234801561001057600080fd5b50600436106100625760003560e01c80633ffbd47f146100675780635a1f985b14610083578063aaee301f146100b3578063d38c459b146100e3578063e100d13a14610113578063e2e52ec114610131575b600080fd5b610081600480360381019061007c919061057c565b61014d565b005b61009d6004803603810190610098919061062a565b61025a565b6040516100aa9190610698565b60405180910390f35b6100cd60048036038101906100c891906106b3565b61028d565b6040516100da9190610717565b60405180910390f35b6100fd60048036038101906100f8919061057c565b6102c3565b60405161010a9190610741565b60405180910390f35b61011b6102f6565b6040516101289190610717565b60405180910390f35b61014b6004803603810190610146919061075c565b610307565b005b60001515600183604051610161919061080d565b908152602001604051809103902060009054906101000a900460ff161515146101bf576040517f08c379a00000000000000000000000000000000000000000000000000000000081526004016101b690610881565b60405180910390fd5b600180836040516101d0919061080d565b908152602001604051809103902060006101000a81548160ff021916908315150217905550600061020183836102c3565b9050336002600083815260200190815260200160002060006101000a81548173ffffffffffffffffffffffffffffffffffffffff021916908373ffffffffffffffffffffffffffffffffffffffff160217905550505050565b60026020528060005260406000206000915054906101000a900473ffffffffffffffffffffffffffffffffffffffff1681565b6001818051602081018201805184825260208301602085012081835280955050505050506000915054906101000a900460ff1681565b600082826040516020016102d89291906108a1565b60405160208183030381529060405280519060200120905092915050565b60008054906101000a900460ff1681565b3373ffffffffffffffffffffffffffffffffffffffff16600260006103966040518060400160405280600481526020017f524f4f54000000000000000000000000000000000000000000000000000000008152506040518060400160405280600481526020017f524f4f54000000000000000000000000000000000000000000000000000000008152506102c3565b815260200190815260200160002060009054906101000a900473ffffffffffffffffffffffffffffffffffffffff1673ffffffffffffffffffffffffffffffffffffffff161461041b576040517f08c379a000000000000000000000000000000000000000000000000000000000815260040161041290610911565b60405180910390fd5b8082555050565b6000604051905090565b600080fd5b600080fd5b600080fd5b600080fd5b6000601f19601f8301169050919050565b7f4e487b7100000000000000000000000000000000000000000000000000000000600052604160045260246000fd5b61048982610440565b810181811067ffffffffffffffff821117156104a8576104a7610451565b5b80604052505050565b60006104bb610422565b90506104c78282610480565b919050565b600067ffffffffffffffff8211156104e7576104e6610451565b5b6104f082610440565b9050602081019050919050565b82818337600083830152505050565b600061051f61051a846104cc565b6104b1565b90508281526020810184848401111561053b5761053a61043b565b5b6105468482856104fd565b509392505050565b600082601f83011261056357610562610436565b5b813561057384826020860161050c565b91505092915050565b600080604083850312156105935761059261042c565b5b600083013567ffffffffffffffff8111156105b1576105b0610431565b5b6105bd8582860161054e565b925050602083013567ffffffffffffffff8111156105de576105dd610431565b5b6105ea8582860161054e565b9150509250929050565b6000819050919050565b610607816105f4565b811461061257600080fd5b50565b600081359050610624816105fe565b92915050565b6000602082840312156106405761063f61042c565b5b600061064e84828501610615565b91505092915050565b600073ffffffffffffffffffffffffffffffffffffffff82169050919050565b600061068282610657565b9050919050565b61069281610677565b82525050565b60006020820190506106ad6000830184610689565b92915050565b6000602082840312156106c9576106c861042c565b5b600082013567ffffffffffffffff8111156106e7576106e6610431565b5b6106f38482850161054e565b91505092915050565b60008115159050919050565b610711816106fc565b82525050565b600060208201905061072c6000830184610708565b92915050565b61073b816105f4565b82525050565b60006020820190506107566000830184610732565b92915050565b600080604083850312156107735761077261042c565b5b600061078185828601610615565b925050602061079285828601610615565b9150509250929050565b600081519050919050565b600081905092915050565b60005b838110156107d05780820151818401526020810190506107b5565b60008484015250505050565b60006107e78261079c565b6107f181856107a7565b93506108018185602086016107b2565b80840191505092915050565b600061081982846107dc565b915081905092915050565b600082825260208201905092915050565b7f557365726e616d6520616c726561647920657869737473000000000000000000600082015250565b600061086b601783610824565b915061087682610835565b602082019050919050565b6000602082019050818103600083015261089a8161085e565b9050919050565b60006108ad82856107dc565b91506108b982846107dc565b91508190509392505050565b7f4e6f7420617574686f72697a6564000000000000000000000000000000000000600082015250565b60006108fb600e83610824565b9150610906826108c5565b602082019050919050565b6000602082019050818103600083015261092a816108ee565b905091905056fea264697066735822122020c457bc629ee2178d720cd25c9d7c146ed0b5da610974cbd1f7e00c6a7f3aee64736f6c63430008130033",
  "linkReferences": {},
  "deployedLinkReferences": {}
}