{
  "_format": "hh-sol-artifact-1",
  "contractName": "GoldenTicketAttack",
  "sourceName": "contracts/CTF_GOLDEN_TICKET/GoldenTicketAttack.sol",
  "abi": [
    {
      "inputs": [
        {
          "internalType": "address",
          "name": "_goldenTicket",
          "type": "address"
        }
      ],
      "stateMutability": "nonpayable",
      "type": "constructor"
    },
    {
      "anonymous": false,
      "inputs": [
        {
          "indexed": true,
          "internalType": "address",
          "name": "previousOwner",
          "type": "address"
        },
        {
          "indexed": true,
          "internalType": "address",
          "name": "newOwner",
          "type": "address"
        }
      ],
      "name": "OwnershipTransferred",
      "type": "event"
    },
    {
      "inputs": [],
      "name": "attack",
      "outputs": [],
      "stateMutability": "nonpayable",
      "type": "function"
    },
    {
      "inputs": [],
      "name": "getRandomness",
      "outputs": [
        {
          "internalType": "uint256",
          "name": "",
          "type": "uint256"
        }
      ],
      "stateMutability": "view",
      "type": "function"
    },
    {
      "inputs": [],
      "name": "getTicket",
      "outputs": [],
      "stateMutability": "nonpayable",
      "type": "function"
    },
    {
      "inputs": [],
      "name": "getTimingFor0",
      "outputs": [
        {
          "internalType": "uint256",
          "name": "",
          "type": "uint256"
        }
      ],
      "stateMutability": "view",
      "type": "function"
    },
    {
      "inputs": [],
      "name": "owner",
      "outputs": [
        {
          "internalType": "address",
          "name": "",
          "type": "address"
        }
      ],
      "stateMutability": "view",
      "type": "function"
    },
    {
      "inputs": [],
      "name": "renounceOwnership",
      "outputs": [],
      "stateMutability": "nonpayable",
      "type": "function"
    },
    {
      "inputs": [
        {
          "internalType": "address",
          "name": "newOwner",
          "type": "address"
        }
      ],
      "name": "transferOwnership",
      "outputs": [],
      "stateMutability": "nonpayable",
      "type": "function"
    }
  ],
  "bytecode": "0x608060405234801561001057600080fd5b50604051610af0380380610af0833981810160405281019061003291906101c4565b61004e61004361009560201b60201c565b61009d60201b60201c565b80600160006101000a81548173ffffffffffffffffffffffffffffffffffffffff021916908373ffffffffffffffffffffffffffffffffffffffff160217905550506101f1565b600033905090565b60008060009054906101000a900473ffffffffffffffffffffffffffffffffffffffff169050816000806101000a81548173ffffffffffffffffffffffffffffffffffffffff021916908373ffffffffffffffffffffffffffffffffffffffff1602179055508173ffffffffffffffffffffffffffffffffffffffff168173ffffffffffffffffffffffffffffffffffffffff167f8be0079c531659141344cd1fd0a4f28419497f9722a3daafe3b4186f6b6457e060405160405180910390a35050565b600080fd5b600073ffffffffffffffffffffffffffffffffffffffff82169050919050565b600061019182610166565b9050919050565b6101a181610186565b81146101ac57600080fd5b50565b6000815190506101be81610198565b92915050565b6000602082840312156101da576101d9610161565b5b60006101e8848285016101af565b91505092915050565b6108f0806102006000396000f3fe608060405234801561001057600080fd5b506004361061007d5760003560e01c80639e5faafc1161005b5780639e5faafc146100c8578063aaae7b86146100d2578063c002c4d6146100f0578063f2fde38b146100fa5761007d565b8063715018a6146100825780638c62fed21461008c5780638da5cb5b146100aa575b600080fd5b61008a610116565b005b61009461012a565b6040516100a191906105fb565b60405180910390f35b6100b2610149565b6040516100bf9190610657565b60405180910390f35b6100d0610172565b005b6100da610298565b6040516100e791906105fb565b60405180910390f35b6100f86102dd565b005b610114600480360381019061010f91906106a3565b610415565b005b61011e610498565b6101286000610516565b565b6000804264ffffffffff801661014091906106ff565b90508091505090565b60008060009054906101000a900473ffffffffffffffffffffffffffffffffffffffff16905090565b61017a610498565b600160009054906101000a900473ffffffffffffffffffffffffffffffffffffffff1673ffffffffffffffffffffffffffffffffffffffff16633c679d676040518163ffffffff1660e01b8152600401600060405180830381600087803b1580156101e457600080fd5b505af11580156101f8573d6000803e3d6000fd5b50505050600061020661012a565b9050600160009054906101000a900473ffffffffffffffffffffffffffffffffffffffff1673ffffffffffffffffffffffffffffffffffffffff16636e372ef8826040518263ffffffff1660e01b815260040161026391906105fb565b600060405180830381600087803b15801561027d57600080fd5b505af1158015610291573d6000803e3d6000fd5b5050505050565b6000806001436102a891906106ff565b40426040516020016102bb92919061077f565b6040516020818303038152906040528051906020012060001c90508091505090565b6102e5610498565b60006102ef610298565b9050600160009054906101000a900473ffffffffffffffffffffffffffffffffffffffff1673ffffffffffffffffffffffffffffffffffffffff16634758eca9826040518263ffffffff1660e01b815260040161034c91906105fb565b600060405180830381600087803b15801561036657600080fd5b505af115801561037a573d6000803e3d6000fd5b50505050600160009054906101000a900473ffffffffffffffffffffffffffffffffffffffff1673ffffffffffffffffffffffffffffffffffffffff1663f9ec27b06103c4610149565b6040518263ffffffff1660e01b81526004016103e09190610657565b600060405180830381600087803b1580156103fa57600080fd5b505af115801561040e573d6000803e3d6000fd5b5050505050565b61041d610498565b600073ffffffffffffffffffffffffffffffffffffffff168173ffffffffffffffffffffffffffffffffffffffff160361048c576040517f08c379a00000000000000000000000000000000000000000000000000000000081526004016104839061082e565b60405180910390fd5b61049581610516565b50565b6104a06105da565b73ffffffffffffffffffffffffffffffffffffffff166104be610149565b73ffffffffffffffffffffffffffffffffffffffff1614610514576040517f08c379a000000000000000000000000000000000000000000000000000000000815260040161050b9061089a565b60405180910390fd5b565b60008060009054906101000a900473ffffffffffffffffffffffffffffffffffffffff169050816000806101000a81548173ffffffffffffffffffffffffffffffffffffffff021916908373ffffffffffffffffffffffffffffffffffffffff1602179055508173ffffffffffffffffffffffffffffffffffffffff168173ffffffffffffffffffffffffffffffffffffffff167f8be0079c531659141344cd1fd0a4f28419497f9722a3daafe3b4186f6b6457e060405160405180910390a35050565b600033905090565b6000819050919050565b6105f5816105e2565b82525050565b600060208201905061061060008301846105ec565b92915050565b600073ffffffffffffffffffffffffffffffffffffffff82169050919050565b600061064182610616565b9050919050565b61065181610636565b82525050565b600060208201905061066c6000830184610648565b92915050565b600080fd5b61068081610636565b811461068b57600080fd5b50565b60008135905061069d81610677565b92915050565b6000602082840312156106b9576106b8610672565b5b60006106c78482850161068e565b91505092915050565b7f4e487b7100000000000000000000000000000000000000000000000000000000600052601160045260246000fd5b600061070a826105e2565b9150610715836105e2565b925082820390508181111561072d5761072c6106d0565b5b92915050565b6000819050919050565b6000819050919050565b61075861075382610733565b61073d565b82525050565b6000819050919050565b610779610774826105e2565b61075e565b82525050565b600061078b8285610747565b60208201915061079b8284610768565b6020820191508190509392505050565b600082825260208201905092915050565b7f4f776e61626c653a206e6577206f776e657220697320746865207a65726f206160008201527f6464726573730000000000000000000000000000000000000000000000000000602082015250565b60006108186026836107ab565b9150610823826107bc565b604082019050919050565b600060208201905081810360008301526108478161080b565b9050919050565b7f4f776e61626c653a2063616c6c6572206973206e6f7420746865206f776e6572600082015250565b60006108846020836107ab565b915061088f8261084e565b602082019050919050565b600060208201905081810360008301526108b381610877565b905091905056fea26469706673582212206b66029ad2959c05ff1e2ec422a69a73ad19641dbbeac7c237c3b1dfc2e979b764736f6c63430008110033",
  "linkReferences": {},
  "deployedLinkReferences": {}
}