{
  "_format": "hh-sol-artifact-1",
  "contractName": "Stonks",
  "sourceName": "contracts/CTF_STONKS/Stonks.sol",
  "abi": [
    {
      "inputs": [
        {
          "internalType": "address",
          "name": "_player",
          "type": "address"
        }
      ],
      "stateMutability": "nonpayable",
      "type": "constructor"
    },
    {
      "inputs": [],
      "name": "GME",
      "outputs": [
        {
          "internalType": "uint256",
          "name": "",
          "type": "uint256"
        }
      ],
      "stateMutability": "view",
      "type": "function"
    },
    {
      "inputs": [],
      "name": "ORACLE_TSLA_GME",
      "outputs": [
        {
          "internalType": "uint256",
          "name": "",
          "type": "uint256"
        }
      ],
      "stateMutability": "view",
      "type": "function"
    },
    {
      "inputs": [],
      "name": "TSLA",
      "outputs": [
        {
          "internalType": "uint256",
          "name": "",
          "type": "uint256"
        }
      ],
      "stateMutability": "view",
      "type": "function"
    },
    {
      "inputs": [
        {
          "internalType": "address",
          "name": "_owner",
          "type": "address"
        },
        {
          "internalType": "uint256",
          "name": "_ticker",
          "type": "uint256"
        }
      ],
      "name": "balanceOf",
      "outputs": [
        {
          "internalType": "uint256",
          "name": "",
          "type": "uint256"
        }
      ],
      "stateMutability": "view",
      "type": "function"
    },
    {
      "inputs": [
        {
          "internalType": "uint256",
          "name": "amountGMEin",
          "type": "uint256"
        },
        {
          "internalType": "uint256",
          "name": "amountTSLAout",
          "type": "uint256"
        }
      ],
      "name": "buyTSLA",
      "outputs": [],
      "stateMutability": "nonpayable",
      "type": "function"
    },
    {
      "inputs": [
        {
          "internalType": "uint256",
          "name": "amountTSLAin",
          "type": "uint256"
        },
        {
          "internalType": "uint256",
          "name": "amountGMEout",
          "type": "uint256"
        }
      ],
      "name": "sellTSLA",
      "outputs": [],
      "stateMutability": "nonpayable",
      "type": "function"
    }
  ],
  "bytecode": "0x608060405234801561001057600080fd5b5060405161088138038061088183398181016040528101906100329190610147565b60146000808373ffffffffffffffffffffffffffffffffffffffff1673ffffffffffffffffffffffffffffffffffffffff1681526020019081526020016000206000808152602001908152602001600020819055506103e86000808373ffffffffffffffffffffffffffffffffffffffff1673ffffffffffffffffffffffffffffffffffffffff1681526020019081526020016000206000600181526020019081526020016000208190555050610174565b600080fd5b600073ffffffffffffffffffffffffffffffffffffffff82169050919050565b6000610114826100e9565b9050919050565b61012481610109565b811461012f57600080fd5b50565b6000815190506101418161011b565b92915050565b60006020828403121561015d5761015c6100e4565b5b600061016b84828501610132565b91505092915050565b6106fe806101836000396000f3fe608060405234801561001057600080fd5b50600436106100615760003560e01c8062fdd58e14610066578063530ec3f71461009657806382187304146100b2578063ab78b9ae146100d0578063b44d76ec146100ee578063b4f9fc921461010c575b600080fd5b610080600480360381019061007b9190610468565b610128565b60405161008d91906104b7565b60405180910390f35b6100b060048036038101906100ab91906104d2565b610182565b005b6100ba6102a1565b6040516100c791906104b7565b60405180910390f35b6100d86102a6565b6040516100e591906104b7565b60405180910390f35b6100f66102ab565b60405161010391906104b7565b60405180910390f35b610126600480360381019061012191906104d2565b6102b0565b005b60008060008473ffffffffffffffffffffffffffffffffffffffff1673ffffffffffffffffffffffffffffffffffffffff168152602001908152602001600020600083815260200190815260200160002054905092915050565b806032836101909190610541565b146101d0576040517f08c379a00000000000000000000000000000000000000000000000000000000081526004016101c7906105e0565b60405180910390fd5b816000803373ffffffffffffffffffffffffffffffffffffffff1673ffffffffffffffffffffffffffffffffffffffff1681526020019081526020016000206000808152602001908152602001600020600082825461022f9190610600565b92505081905550806000803373ffffffffffffffffffffffffffffffffffffffff1673ffffffffffffffffffffffffffffffffffffffff16815260200190815260200160002060006001815260200190815260200160002060008282546102969190610634565b925050819055505050565b600181565b603281565b600081565b806032836102be9190610697565b146102fe576040517f08c379a00000000000000000000000000000000000000000000000000000000081526004016102f5906105e0565b60405180910390fd5b816000803373ffffffffffffffffffffffffffffffffffffffff1673ffffffffffffffffffffffffffffffffffffffff168152602001908152602001600020600060018152602001908152602001600020600082825461035e9190610600565b92505081905550806000803373ffffffffffffffffffffffffffffffffffffffff1673ffffffffffffffffffffffffffffffffffffffff168152602001908152602001600020600080815260200190815260200160002060008282546103c49190610634565b925050819055505050565b600080fd5b600073ffffffffffffffffffffffffffffffffffffffff82169050919050565b60006103ff826103d4565b9050919050565b61040f816103f4565b811461041a57600080fd5b50565b60008135905061042c81610406565b92915050565b6000819050919050565b61044581610432565b811461045057600080fd5b50565b6000813590506104628161043c565b92915050565b6000806040838503121561047f5761047e6103cf565b5b600061048d8582860161041d565b925050602061049e85828601610453565b9150509250929050565b6104b181610432565b82525050565b60006020820190506104cc60008301846104a8565b92915050565b600080604083850312156104e9576104e86103cf565b5b60006104f785828601610453565b925050602061050885828601610453565b9150509250929050565b7f4e487b7100000000000000000000000000000000000000000000000000000000600052601160045260246000fd5b600061054c82610432565b915061055783610432565b925082820261056581610432565b9150828204841483151761057c5761057b610512565b5b5092915050565b600082825260208201905092915050565b7f496e76616c696420707269636500000000000000000000000000000000000000600082015250565b60006105ca600d83610583565b91506105d582610594565b602082019050919050565b600060208201905081810360008301526105f9816105bd565b9050919050565b600061060b82610432565b915061061683610432565b925082820390508181111561062e5761062d610512565b5b92915050565b600061063f82610432565b915061064a83610432565b925082820190508082111561066257610661610512565b5b92915050565b7f4e487b7100000000000000000000000000000000000000000000000000000000600052601260045260246000fd5b60006106a282610432565b91506106ad83610432565b9250826106bd576106bc610668565b5b82820490509291505056fea2646970667358221220477e90520e09f0179411c2375b1e556052b3d25f1f7af9021112f7cf9ed2c0e364736f6c63430008130033",
  "linkReferences": {},
  "deployedLinkReferences": {}
}