{
  "_format": "hh-sol-artifact-1",
  "contractName": "GoldenTicket",
  "sourceName": "contracts/CTF_GOLDEN_TICKET/GoldenTicket.sol",
  "abi": [
    {
      "inputs": [
        {
          "internalType": "address",
          "name": "_to",
          "type": "address"
        }
      ],
      "name": "giftTicket",
      "outputs": [],
      "stateMutability": "nonpayable",
      "type": "function"
    },
    {
      "inputs": [
        {
          "internalType": "address",
          "name": "",
          "type": "address"
        }
      ],
      "name": "hasTicket",
      "outputs": [
        {
          "internalType": "bool",
          "name": "",
          "type": "bool"
        }
      ],
      "stateMutability": "view",
      "type": "function"
    },
    {
      "inputs": [
        {
          "internalType": "uint256",
          "name": "_guess",
          "type": "uint256"
        }
      ],
      "name": "joinRaffle",
      "outputs": [],
      "stateMutability": "nonpayable",
      "type": "function"
    },
    {
      "inputs": [],
      "name": "joinWaitlist",
      "outputs": [],
      "stateMutability": "nonpayable",
      "type": "function"
    },
    {
      "inputs": [
        {
          "internalType": "uint256",
          "name": "_time",
          "type": "uint256"
        }
      ],
      "name": "updateWaitTime",
      "outputs": [],
      "stateMutability": "nonpayable",
      "type": "function"
    },
    {
      "inputs": [
        {
          "internalType": "address",
          "name": "",
          "type": "address"
        }
      ],
      "name": "waitlist",
      "outputs": [
        {
          "internalType": "uint40",
          "name": "",
          "type": "uint40"
        }
      ],
      "stateMutability": "view",
      "type": "function"
    }
  ],
  "bytecode": "0x608060405234801561001057600080fd5b50610c77806100206000396000f3fe608060405234801561001057600080fd5b50600436106100625760003560e01c80633c679d67146100675780634758eca9146100715780636e372ef81461008d578063da79ce81146100a9578063e2142fde146100d9578063f9ec27b014610109575b600080fd5b61006f610125565b005b61008b600480360381019061008691906107a4565b610225565b005b6100a760048036038101906100a291906107a4565b6104d6565b005b6100c360048036038101906100be919061082f565b6105e7565b6040516100d0919061087c565b60405180910390f35b6100f360048036038101906100ee919061082f565b61060b565b60405161010091906108b2565b60405180910390f35b610123600480360381019061011e919061082f565b61062b565b005b60008060003373ffffffffffffffffffffffffffffffffffffffff1673ffffffffffffffffffffffffffffffffffffffff16815260200190815260200160002060009054906101000a900464ffffffffff1664ffffffffff16146101be576040517f08c379a00000000000000000000000000000000000000000000000000000000081526004016101b59061092a565b60405180910390fd5b6312cc030042016000803373ffffffffffffffffffffffffffffffffffffffff1673ffffffffffffffffffffffffffffffffffffffff16815260200190815260200160002060006101000a81548164ffffffffff021916908364ffffffffff160217905550565b60008060003373ffffffffffffffffffffffffffffffffffffffff1673ffffffffffffffffffffffffffffffffffffffff16815260200190815260200160002060009054906101000a900464ffffffffff1664ffffffffff16036102be576040517f08c379a00000000000000000000000000000000000000000000000000000000081526004016102b590610996565b60405180910390fd5b426000803373ffffffffffffffffffffffffffffffffffffffff1673ffffffffffffffffffffffffffffffffffffffff16815260200190815260200160002060009054906101000a900464ffffffffff1664ffffffffff161115610357576040517f08c379a000000000000000000000000000000000000000000000000000000000815260040161034e90610a02565b60405180910390fd5b600160003373ffffffffffffffffffffffffffffffffffffffff1673ffffffffffffffffffffffffffffffffffffffff16815260200190815260200160002060009054906101000a900460ff16156103e4576040517f08c379a00000000000000000000000000000000000000000000000000000000081526004016103db90610a6e565b60405180910390fd5b60006001436103f39190610abd565b4042604051602001610406929190610b3d565b6040516020818303038152906040528051906020012060001c90508181036104805760018060003373ffffffffffffffffffffffffffffffffffffffff1673ffffffffffffffffffffffffffffffffffffffff16815260200190815260200160002060006101000a81548160ff0219169083151502179055505b6000803373ffffffffffffffffffffffffffffffffffffffff1673ffffffffffffffffffffffffffffffffffffffff16815260200190815260200160002060006101000a81549064ffffffffff02191690555050565b60008060003373ffffffffffffffffffffffffffffffffffffffff1673ffffffffffffffffffffffffffffffffffffffff16815260200190815260200160002060009054906101000a900464ffffffffff1664ffffffffff160361056f576040517f08c379a000000000000000000000000000000000000000000000000000000000815260040161056690610bb5565b60405180910390fd5b806000803373ffffffffffffffffffffffffffffffffffffffff1673ffffffffffffffffffffffffffffffffffffffff16815260200190815260200160002060008282829054906101000a900464ffffffffff160192506101000a81548164ffffffffff021916908364ffffffffff16021790555050565b60006020528060005260406000206000915054906101000a900464ffffffffff1681565b60016020528060005260406000206000915054906101000a900460ff1681565b600160003373ffffffffffffffffffffffffffffffffffffffff1673ffffffffffffffffffffffffffffffffffffffff16815260200190815260200160002060009054906101000a900460ff166106b7576040517f08c379a00000000000000000000000000000000000000000000000000000000081526004016106ae90610c21565b60405180910390fd5b6000600160003373ffffffffffffffffffffffffffffffffffffffff1673ffffffffffffffffffffffffffffffffffffffff16815260200190815260200160002060006101000a81548160ff02191690831515021790555060018060008373ffffffffffffffffffffffffffffffffffffffff1673ffffffffffffffffffffffffffffffffffffffff16815260200190815260200160002060006101000a81548160ff02191690831515021790555050565b600080fd5b6000819050919050565b6107818161076e565b811461078c57600080fd5b50565b60008135905061079e81610778565b92915050565b6000602082840312156107ba576107b9610769565b5b60006107c88482850161078f565b91505092915050565b600073ffffffffffffffffffffffffffffffffffffffff82169050919050565b60006107fc826107d1565b9050919050565b61080c816107f1565b811461081757600080fd5b50565b60008135905061082981610803565b92915050565b60006020828403121561084557610844610769565b5b60006108538482850161081a565b91505092915050565b600064ffffffffff82169050919050565b6108768161085c565b82525050565b6000602082019050610891600083018461086d565b92915050565b60008115159050919050565b6108ac81610897565b82525050565b60006020820190506108c760008301846108a3565b92915050565b600082825260208201905092915050565b7f416c7265616479206f6e20776169746c69737400000000000000000000000000600082015250565b60006109146013836108cd565b915061091f826108de565b602082019050919050565b6000602082019050818103600083015261094381610907565b9050919050565b7f4e6f7420696e20776169746c6973740000000000000000000000000000000000600082015250565b6000610980600f836108cd565b915061098b8261094a565b602082019050919050565b600060208201905081810360008301526109af81610973565b9050919050565b7f5374696c6c206861766520746f20776169740000000000000000000000000000600082015250565b60006109ec6012836108cd565b91506109f7826109b6565b602082019050919050565b60006020820190508181036000830152610a1b816109df565b9050919050565b7f416c726561647920686176652061207469636b65740000000000000000000000600082015250565b6000610a586015836108cd565b9150610a6382610a22565b602082019050919050565b60006020820190508181036000830152610a8781610a4b565b9050919050565b7f4e487b7100000000000000000000000000000000000000000000000000000000600052601160045260246000fd5b6000610ac88261076e565b9150610ad38361076e565b9250828203905081811115610aeb57610aea610a8e565b5b92915050565b6000819050919050565b6000819050919050565b610b16610b1182610af1565b610afb565b82525050565b6000819050919050565b610b37610b328261076e565b610b1c565b82525050565b6000610b498285610b05565b602082019150610b598284610b26565b6020820191508190509392505050565b7f4a6f696e20776169746c69737420666972737400000000000000000000000000600082015250565b6000610b9f6013836108cd565b9150610baa82610b69565b602082019050919050565b60006020820190508181036000830152610bce81610b92565b9050919050565b7f596f7920646f6e74206f776e2061207469636b65740000000000000000000000600082015250565b6000610c0b6015836108cd565b9150610c1682610bd5565b602082019050919050565b60006020820190508181036000830152610c3a81610bfe565b905091905056fea2646970667358221220b7afe7bb624f607f3445c4e7dc8d3c4e75290d04d6b77a3509bb42d42718d03964736f6c63430008110033",
  "linkReferences": {},
  "deployedLinkReferences": {}
}