{
  "_format": "hh-sol-artifact-1",
  "contractName": "Nozzle",
  "sourceName": "contracts/CTF_GAS_VALUE/AttackValve.sol",
  "abi": [
    {
      "inputs": [],
      "name": "insert",
      "outputs": [
        {
          "internalType": "bool",
          "name": "",
          "type": "bool"
        }
      ],
      "stateMutability": "nonpayable",
      "type": "function"
    }
  ],
  "bytecode": "0x608060405234801561001057600080fd5b5060ca8061001f6000396000f3fe6080604052348015600f57600080fd5b506004361060285760003560e01c806325f7b1de14602d575b600080fd5b60336047565b604051603e9190606f565b60405180910390f35b60003073ffffffffffffffffffffffffffffffffffffffff16ff5b6069816088565b82525050565b6000602082019050608260008301846062565b92915050565b6000811515905091905056fea264697066735822122019404e8a315e8596f55fd2259ae585126717f5f5708f5684694c175d8601dad664736f6c63430008000033",
  "linkReferences": {},
  "deployedLinkReferences": {}
}