{
  "_format": "hh-sol-artifact-1",
  "contractName": "JackpotProxy",
  "sourceName": "contracts/CTF_TRICKSTER/Trickster.sol",
  "abi": [
    {
      "inputs": [],
      "stateMutability": "payable",
      "type": "constructor"
    },
    {
      "inputs": [],
      "name": "balance",
      "outputs": [
        {
          "internalType": "uint256",
          "name": "",
          "type": "uint256"
        }
      ],
      "stateMutability": "view",
      "type": "function"
    },
    {
      "inputs": [],
      "name": "claimPrize",
      "outputs": [],
      "stateMutability": "payable",
      "type": "function"
    },
    {
      "inputs": [
        {
          "internalType": "address",
          "name": "_jackpot",
          "type": "address"
        }
      ],
      "name": "initialize",
      "outputs": [],
      "stateMutability": "nonpayable",
      "type": "function"
    },
    {
      "stateMutability": "payable",
      "type": "receive"
    }
  ],
  "bytecode": "0x6080604052336000806101000a81548173ffffffffffffffffffffffffffffffffffffffff021916908373ffffffffffffffffffffffffffffffffffffffff160217905550600060405161005290610169565b604051809103906000f08015801561006e573d6000803e3d6000fd5b509050610080816100cd60201b60201c565b8073ffffffffffffffffffffffffffffffffffffffff166108fc479081150290604051600060405180830381858888f193505050501580156100c6573d6000803e3d6000fd5b5050610176565b60008054906101000a900473ffffffffffffffffffffffffffffffffffffffff1673ffffffffffffffffffffffffffffffffffffffff163373ffffffffffffffffffffffffffffffffffffffff161461012557600080fd5b80600160006101000a81548173ffffffffffffffffffffffffffffffffffffffff021916908373ffffffffffffffffffffffffffffffffffffffff16021790555050565b6103198061075983390190565b6105d4806101856000396000f3fe6080604052600436106100385760003560e01c806370740ac914610044578063b69ef8a81461004e578063c4d66de8146100795761003f565b3661003f57005b600080fd5b61004c6100a2565b005b34801561005a57600080fd5b5061006361028c565b6040516100709190610382565b60405180910390f35b34801561008557600080fd5b506100a0600480360381019061009b9190610400565b6102cd565b005b600034116100e5576040517f08c379a00000000000000000000000000000000000000000000000000000000081526004016100dc9061048a565b60405180910390fd5b6000600160009054906101000a900473ffffffffffffffffffffffffffffffffffffffff1673ffffffffffffffffffffffffffffffffffffffff1634346040516024016101329190610382565b6040516020818303038152906040527f5aba5e37000000000000000000000000000000000000000000000000000000007bffffffffffffffffffffffffffffffffffffffffffffffffffffffff19166020820180517bffffffffffffffffffffffffffffffffffffffffffffffffffffffff83818316178352505050506040516101bc919061051b565b60006040518083038185875af1925050503d80600081146101f9576040519150601f19603f3d011682016040523d82523d6000602084013e6101fe565b606091505b5050905080610242576040517f08c379a00000000000000000000000000000000000000000000000000000000081526004016102399061057e565b60405180910390fd5b3373ffffffffffffffffffffffffffffffffffffffff166108fc479081150290604051600060405180830381858888f19350505050158015610288573d6000803e3d6000fd5b5050565b6000600160009054906101000a900473ffffffffffffffffffffffffffffffffffffffff1673ffffffffffffffffffffffffffffffffffffffff1631905090565b60008054906101000a900473ffffffffffffffffffffffffffffffffffffffff1673ffffffffffffffffffffffffffffffffffffffff163373ffffffffffffffffffffffffffffffffffffffff161461032557600080fd5b80600160006101000a81548173ffffffffffffffffffffffffffffffffffffffff021916908373ffffffffffffffffffffffffffffffffffffffff16021790555050565b6000819050919050565b61037c81610369565b82525050565b60006020820190506103976000830184610373565b92915050565b600080fd5b600073ffffffffffffffffffffffffffffffffffffffff82169050919050565b60006103cd826103a2565b9050919050565b6103dd816103c2565b81146103e857600080fd5b50565b6000813590506103fa816103d4565b92915050565b6000602082840312156104165761041561039d565b5b6000610424848285016103eb565b91505092915050565b600082825260208201905092915050565b7f7a65726f206465706f7369740000000000000000000000000000000000000000600082015250565b6000610474600c8361042d565b915061047f8261043e565b602082019050919050565b600060208201905081810360008301526104a381610467565b9050919050565b600081519050919050565b600081905092915050565b60005b838110156104de5780820151818401526020810190506104c3565b60008484015250505050565b60006104f5826104aa565b6104ff81856104b5565b935061050f8185602086016104c0565b80840191505092915050565b600061052782846104ea565b915081905092915050565b7f6661696c65640000000000000000000000000000000000000000000000000000600082015250565b600061056860068361042d565b915061057382610532565b602082019050919050565b600060208201905081810360008301526105978161055b565b905091905056fea2646970667358221220f9d4e1638467f06e86aef9b8d20059e5211a8761f378412a6f4b6e191ddef3b464736f6c63430008110033608060405234801561001057600080fd5b506102f9806100206000396000f3fe60806040526004361061002d5760003560e01c8063c4d66de814610036578063d70981541461005257610034565b3661003457005b005b610050600480360381019061004b91906101c2565b61006e565b005b61006c60048036038101906100679190610225565b6100b1565b005b806000806101000a81548173ffffffffffffffffffffffffffffffffffffffff021916908373ffffffffffffffffffffffffffffffffffffffff16021790555050565b60008054906101000a900473ffffffffffffffffffffffffffffffffffffffff1673ffffffffffffffffffffffffffffffffffffffff163373ffffffffffffffffffffffffffffffffffffffff161461010957600080fd5b3373ffffffffffffffffffffffffffffffffffffffff166108fc6002836101309190610281565b9081150290604051600060405180830381858888f1935050505015801561015b573d6000803e3d6000fd5b5050565b600080fd5b600073ffffffffffffffffffffffffffffffffffffffff82169050919050565b600061018f82610164565b9050919050565b61019f81610184565b81146101aa57600080fd5b50565b6000813590506101bc81610196565b92915050565b6000602082840312156101d8576101d761015f565b5b60006101e6848285016101ad565b91505092915050565b6000819050919050565b610202816101ef565b811461020d57600080fd5b50565b60008135905061021f816101f9565b92915050565b60006020828403121561023b5761023a61015f565b5b600061024984828501610210565b91505092915050565b7f4e487b7100000000000000000000000000000000000000000000000000000000600052601160045260246000fd5b600061028c826101ef565b9150610297836101ef565b92508282026102a5816101ef565b915082820484148315176102bc576102bb610252565b5b509291505056fea264697066735822122029f5e6f53f2e59114a12ebcfdcf1ca16bde1d308ec9c429dcbd74170478e55ee64736f6c63430008110033",
  "linkReferences": {},
  "deployedLinkReferences": {}
}