{
  "_format": "hh-sol-artifact-1",
  "contractName": "Jackpot",
  "sourceName": "contracts/CTF_TRICKSTER/Trickster.sol",
  "abi": [
    {
      "stateMutability": "payable",
      "type": "fallback"
    },
    {
      "inputs": [
        {
          "internalType": "uint256",
          "name": "amount",
          "type": "uint256"
        }
      ],
      "name": "claimPrize",
      "outputs": [],
      "stateMutability": "payable",
      "type": "function"
    },
    {
      "inputs": [
        {
          "internalType": "address",
          "name": "_jackpotProxy",
          "type": "address"
        }
      ],
      "name": "initialize",
      "outputs": [],
      "stateMutability": "payable",
      "type": "function"
    },
    {
      "stateMutability": "payable",
      "type": "receive"
    }
  ],
  "bytecode": "0x608060405234801561001057600080fd5b506102f9806100206000396000f3fe60806040526004361061002d5760003560e01c8063c4d66de814610036578063d70981541461005257610034565b3661003457005b005b610050600480360381019061004b91906101c2565b61006e565b005b61006c60048036038101906100679190610225565b6100b1565b005b806000806101000a81548173ffffffffffffffffffffffffffffffffffffffff021916908373ffffffffffffffffffffffffffffffffffffffff16021790555050565b60008054906101000a900473ffffffffffffffffffffffffffffffffffffffff1673ffffffffffffffffffffffffffffffffffffffff163373ffffffffffffffffffffffffffffffffffffffff161461010957600080fd5b3373ffffffffffffffffffffffffffffffffffffffff166108fc6002836101309190610281565b9081150290604051600060405180830381858888f1935050505015801561015b573d6000803e3d6000fd5b5050565b600080fd5b600073ffffffffffffffffffffffffffffffffffffffff82169050919050565b600061018f82610164565b9050919050565b61019f81610184565b81146101aa57600080fd5b50565b6000813590506101bc81610196565b92915050565b6000602082840312156101d8576101d761015f565b5b60006101e6848285016101ad565b91505092915050565b6000819050919050565b610202816101ef565b811461020d57600080fd5b50565b60008135905061021f816101f9565b92915050565b60006020828403121561023b5761023a61015f565b5b600061024984828501610210565b91505092915050565b7f4e487b7100000000000000000000000000000000000000000000000000000000600052601160045260246000fd5b600061028c826101ef565b9150610297836101ef565b92508282026102a5816101ef565b915082820484148315176102bc576102bb610252565b5b509291505056fea264697066735822122029f5e6f53f2e59114a12ebcfdcf1ca16bde1d308ec9c429dcbd74170478e55ee64736f6c63430008110033",
  "linkReferences": {},
  "deployedLinkReferences": {}
}